:020000040800F2
:100000007806002439030008B90F0008290F0008FA
:10001000B10F0008410400081112000800000000A0
:10002000000000000000000000000000F90F0008C0
:100030004904000800000000F10F0008311000081A
:100040005303000853030008530300085303000838
:100050005303000853030008530300085303000828
:100060005303000853030008530300085303000818
:100070005303000853030008530300085303000808
:1000800053030008530300085303000853030008F8
:1000900053030008530300085303000853030008E8
:1000A00053030008530300085303000853030008D8
:1000B00053030008530300085303000853030008C8
:1000C00053030008530300085303000853030008B8
:1000D00053030008530300085303000853030008A8
:1000E00053030008530300080000000053030008F6
:1000F0005303000853030008530300085303000888
:100100005303000853030008530300085303000877
:100110005303000853030008530300085303000867
:100120005303000853030008530300085303000857
:100130005303000853030008530300085303000847
:1001400000000000000000000000000000000000AF
:100150005303000853030008530300085303000827
:100160005303000853030008530300085303000817
:100170005303000853030008530300080000000065
:1001800053030008530300085303000853030008F7
:1001900053030008530300085303000853030008E7
:1001A00053030008530300085303000853030008D7
:1001B00053030008530300085303000853030008C7
:1001C00053030008530300085303000853030008B7
:1001D00053030008530300085303000853030008A7
:1001E0005303000853030008530300085303000897
:1001F0005303000853030008530300085303000887
:100200005303000853030008530300085303000876
:100210005303000853030008530300085303000866
:1002200053030008530300085303000800000000B4
:1002300053030008530300080000000053030008A4
:100240005303000853030008530300085303000836
:100250005303000853030008530300085303000826
:100260005303000853030008530300085303000816
:100270005303000853030008530300080000000064
:100280005303000853030008530300080000000054
:10029000000000005303000800F002F800F03CF8F2
:1002A0000AA090E8000C82448344AAF10107DA45D1
:1002B00001D100F031F8AFF2090EBAE80F0013F0E7
:1002C000010F18BFFB1A43F001031847E00F0000AD
:1002D00000100000103A24BF78C878C1FAD852073D
:1002E00024BF30C830C144BF04680C6070470000B0
:1002F0000023002400250026103A28BF78C1FBD82F
:10030000520728BF30C148BF0B6070471FB500F0CF
:10031000B8FF1FBD10B510BD00F058F81146FFF72B
:10032000F5FF00F0A5FF00F076F803B4FFF7F2FF49
:1003300003BC00F07DF800000948804709480047E9
:10034000FEE7FEE7FEE7FEE7FEE7FEE7FEE7FEE785
:10035000FEE7FEE704480549054A064B70470000E2
:100360004111000899020008780000247806002452
:1003700078020024780200244FF0000200B51346F2
:1003800094469646203922BFA0E80C50A0E80C50B5
:10039000B1F12001BFF4F7AF090728BFA0E80C5066
:1003A00048BF0CC05DF804EB890028BF40F8042B5F
:1003B00008BF704748BF20F8022B11F0804F18BFCC
:1003C00000F8012B7047704770477047754600F082
:1003D0002BF8AE4605006946534620F007008546D7
:1003E00018B020B5FFF7B6FFBDE820404FF000067B
:1003F0004FF000074FF000084FF0000BAC46ACE8A0
:10040000C009ACE8C009ACE8C009ACE8C00921F0FB
:1004100007018D46704710B50446AFF300802046B3
:10042000BDE81040FFF781BF00487047100000246E
:1004300001491820ABBEFEE726000200704700000D
:10044000FEE7000000000000704700000000000010
:10045000EFF3108072B600BFFEE70000000000005E
:1004600041F20000C5F600400068000C7047000033
:1004700040F27000C2F200400068704700000000C7
:1004800040F2080040F27001C2F20040C2F20041A6
:1004900000780A68104408607047000000000000FF
:1004A00080B5032000F0CCF800F01AFA44F21841AD
:1004B00041F29C23C5F60201C0F600030A68C2F3AC
:1004C0000322096801F00F019A5C595C02F01F02D7
:1004D000D04040F20402C2F2004201F01F0120FAB3
:1004E00001F1116040F20001C2F2004108600F20EA
:1004F00000F00AF800281CBF012080BD00F080F841
:10050000002080BD00000000B0B540F20801C2F23A
:100510000041097801B3044640F20000C2F20040F5
:100520004FF47A72B2FBF1F10068B0FBF1F000F029
:10053000F7FC0F2C4FF001050CD858B94FF0FF30E5
:1005400000222146002500F06BF840F20C00C2F2B8
:10055000004004602846B0BD0120B0BD000000008E
:10056000B0B502784EF69C5CCEF2000C43784CF8A5
:10057000043CF2B14368CCF80030037BC17A90F8B8
:100580000AE0457B447A42EA0372837B42EA0161D6
:10059000C27B41EACE41007A41EA854141EA4341CA
:1005A00041EA024141EA042141EA4000CCF804005A
:1005B000B0BD0020CCF80000CCF80400B0BD0000B5
:1005C0004EF62450CEF20000BFF35F8F016821F495
:1005D00080310160002101677047000000000000C9
:1005E0004EF6245140F00100CEF200010867086881
:1005F00040F480300860BFF34F8FBFF36F8F7047B8
:1006000081B044F2F440C5F60200016841F00201F5
:100610000160006800F002000090009801B070478F
:1006200070B514460D46064600F0F6FD29462246F2
:1006300000F0C6FC0146304600F0F6FD70BD00003B
:1006400080B500F005FE80BDB0B544F60C05C5F6DA
:10065000020529684907296805D401F00701081A2D
:1006600018BF0120B0BD21F0070108432860FFF743
:10067000FFFE044655F8080C800407D4FFF7F8FE87
:10068000001BB0F57A7FF5D90120B0BD0020B0BDC8
:100690002DE9F04381B0002800F0F28042F200081A
:1006A0000446C5F200288946D8F8000000F00F0083
:1006B00088420ED2D8F8000020F00F0040EA09006E
:1006C000C8F80000D8F8000000F00F00484540F0DE
:1006D000D780206844F218474107C5F602070AD5BB
:1006E00021693A6802F07002914204D93A6822F016
:1006F00070021143396001070AD561697A6802F016
:100700007002914204D97A6822F070021143796034
:10071000C1060AD5A1697A6802F4E062914204D95F
:100720007A6822F4E0621143796081060AD5E169B2
:10073000BA6802F07002914204D9BA6822F07002DD
:100740001143B96081070AD5E1683A6802F00F02E7
:10075000914204D93A6822F00F0211433960C00770
:100760007ED1206881070AD5E1683A6802F00F025D
:10077000914204D23A6822F00F0211433960D8F84E
:10078000001001F00F0149450DD9D8F8001021F0F3
:100790000F0141EA0901C8F80010D8F8001001F073
:1007A0000F0149456CD141070AD521693A6802F029
:1007B0007002914204D23A6822F07002114339600B
:1007C00001070AD561697A6802F07002914204D289
:1007D0007A6822F0700211437960C1060AD5A169D6
:1007E0007A6802F4E062914204D27A6822F4E0620C
:1007F0001143796080060AD5E069B96801F070019B
:10080000884204D2B96821F070010843B86000F052
:1008100067F8396841F29C22C0F60002C1F3032157
:100820003B6803F00F03515CD25C01F01F01C8402C
:1008300002F01F0140F2040220FA01F1C2F200426C
:10084000116040F2000140F20C02C2F20041C2F21B
:10085000004208601068FFF757FE01B0BDE8F08362
:10086000386820F47061D4E90102032841EA0201EA
:10087000396009D0022829D157F8181C890307D4F8
:10088000012001B0BDE8F08357F8181C8901F7D5A5
:1008900057F8081C21F00701084347F8080CFFF738
:1008A000E7FD064641F2883557F8080C616800F00C
:1008B0003800B0EBC10F3FF454AFFFF7D9FD801BF8
:1008C000A842F1D9032001B0BDE8F083012857F810
:1008D000181C02D1C905D3D5DAE74907D0D5D7E727
:1008E00044F20041C5F602010869C0F3C2000328C2
:1008F0000FD002282BD078BB0868800649F2000090
:10090000C0F2D03058BF70470968C1F3C101C84078
:1009100070478A6A886AC0F3051CCB6A486B03F08B
:100920000103BCF1000FC0F3CC0003FB00F000EEAC
:10093000100AB8EE400A14D002F00302022A12D0C4
:10094000A2B90868800614D49FED251A1EE047F668
:100950004000C0F27D10704740F60010C0F23D002C
:100960007047002070479FED1D1A0FE09FED1A1A87
:100970000CE0086849F20002C0F2D032C0F3C100B6
:1009800022FA00F001EE100AB8EE411A02EE10CA87
:100990009FED144AB8EE422A086B6FF35F2003EE16
:1009A000100A81EE021AB8EE433A086B00EE043AE0
:1009B000B7EE000AC0F34620013033EE000A21EE04
:1009C000000A01EE100AB8EE411A80EE010ABCEEF0
:1009D000C00A10EE100A70470024744A20BCBE4BB7
:1009E0000024744C000000392DE9F041002800F08B
:1009F0005F810446007844F20046C007C5F602064F
:100A00004AD0306900F03801B06A102905D01829A1
:100A10000AD100F00300022806D13068800337D5E0
:100A20006068A8BB012726E065686DB1B5F5803F19
:100A300006D0B5F5A02F306807D140F48020306093
:100A4000306840F4803006E0306820F48030306058
:100A5000306820F480203060FFF70AFD002D054645
:100A600013D000BF3068800312D4FFF701FD401B94
:100A70006428F7D903270020002800F030820BE01B
:100A8000FFF7F6FC401B6428F4D830688003F7D4E5
:100A90000120002800F023822078800768D5306983
:100AA00010F03801B06A18D0182908BF5FEA8070CA
:100AB00013D0E0683168C8B321F0190108433060F1
:100AC000FFF7D6FC054600BF306840071FD4FFF78C
:100AD000CFFC401B0228F7D936E03068400703D529
:100AE000E068002800F076813068E16820F01900A5
:100AF00008433060FFF7BCFC054600BF3068400784
:100B000005D4FFF7B5FC401B0228F7D91CE0FFF71E
:100B1000A7FC41F2030188421CD820697168402873
:100B200021F47C311DD141F400301CE021F00100A2
:100B30003060FFF79DFC05463068400714D5FFF78D
:100B400097FC401B0328F7D303270020002800F060
:100B5000C6810DE07068216920F0FE4040EA016026
:100B600001E041EA003070600120002800F0B78108
:100B70002078C00659D5306900F03801B06A0829DC
:100B800005D0182918D100F00300012814D13068CD
:100B9000C00502D5E069802842D1FFF761FC41F22F
:100BA000030188421BD8206A7168202821F0F8418F
:100BB0002ED141F080402DE0E0690028306816D049
:100BC00040F080003060FFF753FC05463068C005F8
:100BD000E3D4FFF74DFC401B0228F7D916E0F0687C
:100BE000216A20F07C5040EA0160F06013E020F0C0
:100BF00080003060FFF73CFC054600BF3068C00550
:100C000009D5FFF735FC401B0328F7D3032708E07D
:100C100041EA806070600120002800F0608104E0FB
:100C200001270020002800F05A812078000743D4D3
:100C30002078800653D42078400764D4656A9DB339
:100C4000306900F03800182840F0A480012DB16A06
:100C5000306B2DD001F00302A36A9A4228D1C1F370
:100C60000511E26A914223D10146226B6FF35F21A5
:100C7000013A91421CD1C0F34621626B013A914284
:100C800016D1C0F30641A26B013A914210D1C0F3D4
:100C90000660E16B013988420AD1706BC0F3CC0069
:100CA000A16C814240F01E810027F8B2BDE8F081BE
:100CB0000127F8B2BDE8F08160690028706F38D074
:100CC00040F001007067FFF7D3FB0546706F8007A7
:100CD000AED4FFF7CDFB401B0228F7D925E0A06971
:100CE0000028306845D040F480503060FFF7C0FBEA
:100CF000054600BF306880049DD4FFF7B9FB401B58
:100D00000228F7D911E0D6F8000440F48070C6F844
:100D10000004FFF7ADFB0546D6F80004C00519D462
:100D2000FFF7A6FB401B6428F6D90327F8B2BDE8FD
:100D3000F08120F001007067FFF79AFB054603275A
:100D4000706F80077FF574AFFFF792FB401B02289E
:100D5000F6D9C4E0A568002D3ED0012D05D0052DA3
:100D6000306F3AD140F004003067306F40F001003E
:100D700039E020F480503060FFF77AFB0546032706
:100D8000306880047FF557AFFFF772FB401B0228E5
:100D9000F6D9A4E0306820F080703060FFF768FB7F
:100DA000022D05464FF003070AD100BF30688001CD
:100DB00037D5FFF75DFB401B0228F7D98FE000BF56
:100DC000306880017FF570AFFFF752FB401B0228AF
:100DD000F6D984E00127B8E6306F20F001003067D3
:100DE000306F20F004003067FFF742FB002D05460E
:100DF00041F288384FF003070FD000BF306F8007F3
:100E00003FF51CAFFFF734FB401B4045F6D966E0C9
:100E1000FFF72EFB401B404561D8306F8007F7D4A9
:100E20000CE704F12807B06A40F2F33188438ECF13
:100E30000843591E40EA02104FF47E42B06202EBB2
:100E400047206FF35F214FF4FE0280B2E36B08444A
:100E5000A16B02EB01414FF0FE4201F4FE0102EBF7
:100E60000362084402F0FE4108443063F06A4FF622
:100E7000F87120F00100F062706BA26C884340EAC8
:100E8000C2007063F06A216C20F00C000843F0622D
:100E9000F06A616C20F002000843F062F06A40F4EE
:100EA0008030F062F06A40F40030F062F06A40F4A2
:100EB0008020F062F06A40F00100F062306840F09B
:100EC00080703060FFF7D4FA044603273068800151
:100ED0003FF5EAAEFFF7CCFA001B0228F6D9F8B2CC
:100EE000BDE8F081F06A20F00100F062FFF7C0FA7F
:100EF0000546FFF7BDFAA842FBD0706B4FF6F871BC
:100F0000A26C8843002740EAC2007063F06A40F098
:100F10000100F062F8B2BDE8F081000000000000BE
:100F200080B500F06DF880BDFEE700000000000015
:100F300010B584B00024CDE90244CDE90044FFF7A8
:100F40003FFB0120ADF8000048F21F70029040F214
:100F50000110039068460194FFF702FB0420FFF79D
:100F60003FFB04B010BD000083B044F2E040C5F682
:100F70000200016841F004010160016801F0040110
:100F800002910299016841F080010160016801F05D
:100F9000800101910199016841F00101016000683F
:100FA00000F001000090009803B0704700000000BE
:100FB000FEE7000000000000FEE700000000000067
:100FC00000F007004FF0FF3C80F00703042B28BF20
:100FD0000423033838BF00200CFA03F399430CFABA
:100FE00000F301FA00F022EA030108437047000011
:100FF0007047000000000000704700000000000083
:10100000B0B501380024B4EB106F01D00120B0BDA1
:101010004EF210050F21CEF2000568604FF0FF3050
:1010200000F002F9AC60072028602046B0BD000047
:1010300080B5FFF725FA80BD70B59CB044F6180462
:1010400040F22C4509A84C21C5F60204C5F600055E
:10105000FFF792F902200026CDE90766CDE9056683
:10106000CDE90366CDE90166FFF7EEFA0096286840
:1010700020F001002860286800F00100009020683E
:1010800040F440402060206800F440400090009808
:1010900020688004FCD54FF6DC40CFF6FF70215865
:1010A00041F002012150205800F002000090009809
:1010B00000200090206840F440402060206800F448
:1010C00040400090286840F001002860286800F047
:1010D00001000090009800BF20688004FCD501202A
:1010E00009904FF480300A9002200521CDE91200CA
:1010F0001491C021CDE91510CDE9170009A80824E5
:1011000019940025CDE91A55FFF76EFCA0B93F20D0
:10111000019003204FF48061CDE902050494402042
:10112000CDE90500CDE9071001A80221FFF7B0FACB
:10113000002804BF1CB070BDFFF78AF90000000052
:101140004EF6885042F2000CCEF20000C5F2002CA0
:10115000016841F470010160DCF8000000F00F004C
:10116000062806D8DCF80000072161F30300CCF85C
:10117000000044F200404EF67F52C5F60200CEF663
:10118000F622016841F0010101600021016103685C
:101190001A400260DCF80020120706D5DCF80020B7
:1011A000072363F30302CCF8002040F200228161A0
:1011B000C161C0F20222016282620022C0F2FF120B
:1011C000C26240F28022C0F2011202634163826374
:1011D000C16302644164026822F4802202600166F5
:1011E00041F20000C5F600400068B1EB507F05D128
:1011F00048F208100121C5F20010016044F200001D
:1012000043F2D201C5F200200160704700000000E7
:10121000FEE70000000000004EF60C50CEF2000089
:101220000068C0F3022070474EF6145300F00F021E
:10123000CEF20003B0F1FF3F1A4400F16043C8BF93
:1012400003F56442080110707047000000000000C0
:101250004EF60C514FF6FF03CEF200010A681A4019
:1012600060F30A2242F0806040F0FD700860704731
:10127000FFF75EFEFFF714F9FFF7DEFEFFF774FEDF
:10128000FEE7F1EE100A4FF6FF71C0F2C03120EA1E
:10129000010040F04070E1EE100A704700000000CD
:1012A000010203040102030406070809D012000822
:1012B0000000002410000000D4020008E012000822
:1012C0001000002468060000F00200080000000082
:1012D0000090D0030090D003010000001000000037
:040000050800029954
:00000001FF
